:100000000C94E7050C9404060C9404060C94040666
:100010000C9404060C9404060C9404060C94040638
:100020000C9404060C9404060C9404060C94040628
:100030000C9404060C9404060C949C0A0C9404067C
:100040000C9404060C943C070C94DF060C94A10657
:100050000C9404060C9491170C9404060C9404065A
:100060000C9404060C940406756E6974203C2053AD
:1000700045525F434E5400626572746F732F637014
:10008000752F6176722F6472762F7365725F6D655E
:1000900067612E630073697A65203E2031006265D6
:1000A00072746F732F7374727563742F6669666FE1
:1000B0006275662E680066642D3E68772D3E727804
:1000C00062756666657200626572746F732F647222
:1000D000762F7365722E630066642D3E68772D3E21
:1000E000747862756666657200626572746F732FEC
:1000F0006472762F7365722E63002166642D3E69EB
:10010000735F6F70656E00626572746F732F6472D7
:10011000762F7365722E6300756E6974203C2063C0
:100120006F756E746F66287365725F68616E646C5C
:1001300065732900626572746F732F6472762F7312
:1001400065722E6300706F72742D3E69735F6F70FD
:10015000656E00626572746F732F6472762F7365BB
:10016000722E630066642D3E5F74797065203D3D9C
:10017000204B46545F53455249414C0062657274AE
:100180006F732F6472762F7365722E680021746905
:100190006D65725F696E697469616C697A65640026
:1001A000626572746F732F6472762F74696D6572F5
:1001B0002E63002674696D65722D3E6C696E6B004E
:1001C000626572746F732F6472762F74696D6572D5
:1001D0002E630066642D3E72656164006265727410
:1001E0006F732F696F2F6B66696C652E680066648C
:1001F0002D3E777269746500626572746F732F6942
:100200006F2F6B66696C652E68006275665F706F34
:10021000696E746572203E3D20627566006265728B
:10022000746F732F6D776172652F666F726D617475
:1002300077722E63006368616E6E656C0062657232
:10024000746F732F6E65742F617832352E6300637F
:10025000747800626572746F732F6E65742F6178A5
:1002600032352E63006973616C6E756D28632920C9
:100270007C7C2063203D3D2027202700626572742E
:100280006F732F6E65742F617832352E630063743F
:10029000782D3E6372635F6F7574203D3D20415839
:1002A00032355F4352435F434F52524543540062DD
:1002B0006572746F732F6E65742F617832352E639B
:1002C00000706174685F6C656E203E3D2032006294
:1002D0006572746F732F6E65742F617832352E637B
:1002E000007061746800626572746F732F6E65745C
:1002F0002F617832352E630066642D3E636C656134
:100300007265727200626572746F732F696F2F6B02
:1003100066696C652E680066642D3E6572726F7248
:1003200000626572746F732F696F2F6B66696C65FD
:100330002E68000000891112239B322446AD5736E7
:1003400065BF74488CC19D5AAFD3BE6CCAE5DB7ED5
:10035000E9F7F88110080193331A22A5562C47B704
:10036000753E64C99C408DDBBF52AEEDDA64CBFFB5
:10037000F976E802218B30100299132667AF7634A4
:1003800044BD554AADC3BC588ED19F6EEBE7FA7C95
:10039000C8F5D983310A2091121803A7772E66B5C4
:1003A000543C45CBBD42ACD99E508FEFFB66EAFD75
:1003B000D874C904428D5316619F702004A9153268
:1003C00027BB364CCEC5DF5EEDD7FC6888E1997A55
:1003D000ABF3BA85520C4397711E60A1142805B384
:1003E000373A26CDDE44CFDFFD56ECE9986089FB35
:1003F000BB72AA06638F7214409D512225AB343024
:1004000006B9174EEFC7FE5CCCD5DD6AA9E3B87814
:100410008AF19B87730E6295501C41A3352A24B143
:10042000163807CFFF46EEDDDC54CDEBB962A8F9F4
:100430009A708B088481951AA793B62CC2A5D33ED7
:10044000E1B7F04008C919522BDB3A644EED5F76F4
:100450006DFF7C899400859BB712A6ADD224C3BFE3
:10046000F136E0C1184809D33B5A2AE55E6C4FF7D4
:100470007D7E6C0AA583B4188691972EE3A7F23C83
:10048000C0B5D14229CB38500AD91B666FEF7E74B4
:100490004CFD5D8BB502A499961087AFF326E2BDA3
:1004A000D034C1C3394A28D11A580BE77F6E6EF594
:1004B0005C7C4D0CC685D71EE597F42880A1913A47
:1004C000A3B3B2444ACD5B5669DF78600CE91D7274
:1004D0002FFB3E8DD604C79FF516E4A9902081BB63
:1004E000B332A2C55A4C4BD7795E68E11C680DF354
:1004F0003F7A2E0EE787F61CC495D52AA1A3B03803
:1005000082B193466BCF7A5448DD59622DEB3C7033
:100510000EF91F8FF706E69DD414C5ABB122A0B922
:10052000923083C77B4E6AD5585C49E33D6A2CF113
:100530001E780F6368203C3D2037004D6F64656D69
:100540002F68617264776172652E630066642D3E68
:100550005F74797065203D3D204B46545F414653A2
:100560004B004D6F64656D2F6166736B2E68008064
:100570008183848687898A8C8E8F919294959798AF
:100580009A9B9D9EA0A2A3A5A6A7A9AAACADAFB019
:10059000B2B3B5B6B7B9BABCBDBEC0C1C2C4C5C698
:1005A000C8C9CACBCDCECFD0D2D3D4D5D6D7D9DA3D
:1005B000DBDCDDDEDFE0E1E2E3E4E5E6E7E8E9EA13
:1005C000EAEBECEDEEEEEFF0F1F1F2F3F3F4F5F52A
:1005D000F6F6F7F8F8F9F9FAFAFAFBFBFCFCFCFD81
:1005E000FDFDFDFEFEFEFEFEFFFFFFFFFFFFFF53D2
:1005F000796D626F6C3A2025630A0053796D626FE2
:100600006C207461626C653A207374616E6461720F
:10061000640A0053796D626F6C207461626C653A94
:1006200020616C7465726E6174650A00446972655C
:10063000637469766974793A2025640A00476169B0
:100640006E3A2025640A004865696768743A202577
:10065000640A00506F7765723A2025640A0041757C
:10066000746F2D61636B206D657373616765733A99
:10067000204F66660A004175746F2D61636B206DB3
:10068000657373616765733A204F6E0A0050617439
:1006900068323A20252E36732D25640A0050617485
:1006A00068313A20252E36732D25640A004465737F
:1006B00074696E6174696F6E3A20252E36732D252C
:1006C000640A0043616C6C7369676E3A20252E36AC
:1006D000732D25640A00436F6E66696775726174D5
:1006E000696F6E3A0A00300A004572726F723A20E2
:1006F000496E76616C696420636F6D6D616E640A2A
:1007000000310A004D657373616765206175746F10
:100710002D61636B2064697361626C65640A0031EA
:100720000A004D657373616765206175746F2D6193
:10073000636B20656E61626C65640A00310A005269
:10074000657472696564206C617374206D65737380
:100750006167650A00310A000A002D25640A004D10
:1007600065737361676520726563697069656E742E
:100770003A20252E367300310A000A002D25640A1E
:10078000004D6573736167652072656369706965A3
:100790006E743A20252E367300310A0053656C655D
:1007A00063746564207374616E646172642073792C
:1007B0006D626F6C207461626C650A0053656C65D4
:1007C0006374656420616C7465726E617465207316
:1007D000796D626F6C207461626C650A0053796D8B
:1007E000626F6C2073657420746F2025630A004467
:1007F00069726563746976697479207365742074AD
:100800006F2025646465670A0044697265637469D2
:10081000766974792073657420746F206F6D6E69CA
:100820000A00310A00310A004761696E207365745D
:1008300020746F20256464420A00310A00416E74FE
:10084000656E6E61206865696768742073657420E1
:10085000746F20256C646D204141540A00310A00F8
:10086000506F7765722073657420746F20256477EC
:100870000A00310A004C6F6E6774697475646520F4
:1008800073657420746F20252E39730A00310A00B5
:100890004C617469747564652073657420746F208D
:1008A000252E38730A00310A005072696E7420498F
:1008B0004E464F2064697361626C65640A00310AB8
:1008C000005072696E7420494E464F20656E616219
:1008D0006C65640A00310A005072696E74204441EC
:1008E00054412064697361626C65640A00310A00D6
:1008F0005072696E74204441544120656E61626C8F
:1009000065640A00310A005072696E7420504154C7
:10091000482064697361626C65640A00310A0050A2
:1009200072696E74205041544820656E61626C6536
:10093000640A00310A005072696E742044535420D6
:1009400064697361626C65640A00310A00507269FF
:100950006E742044535420656E61626C65640A00B5
:10096000310A005072696E742053524320646973D7
:1009700061626C65640A00310A005072696E74200D
:1009800053524320656E61626C65640A00310A004F
:1009900050617468323A20252E36732D25640A0082
:1009A000310A0050617468313A20252E36732D25A6
:1009B000640A00310A0044657374696E6174696F7A
:1009C0006E3A20252E36732D25640A00310A004325
:1009D000616C6C7369676E3A20252E36732D256421
:1009E0000A00310A0050617468323A20252E3673AD
:1009F0002D25640A00310A0050617468313A2025BF
:100A00002E36732D25640A00310A0044657374691B
:100A10006E6174696F6E3A20252E36732D25640A37
:100A200000310A0043616C6C7369676E3A20252EB1
:100A300036732D25640A00310A004D6573736167B2
:100A4000652073656E740A00310A004C6F6361742F
:100A5000696F6E207570646174652073656E740AC9
:100A600000310A005061636B65742073656E740A0F
:100A700000310A00436F6E66696775726174696F51
:100A80006E2073617665640A00300A004572726FE9
:100A9000723A204E6F2073746F72656420636F6EBC
:100AA00066696775726174696F6E20746F206C6F10
:100AB0006164210A00436F6E6669677572617469CB
:100AC0006F6E206C6F616465640A00310A00436FC9
:100AD0006E66696775726174696F6E20636C6561BB
:100AE0007265642E205265737461727420746F2075
:100AF0006C6F61642064656661756C74732E0A00A6
:100B00002D2D2D2D2D2D2D2D2D2D2D2D2D2D2D0A38
:100B1000004D6F64656D2072656164790A004465FB
:100B20006661756C7420636F6E6669677572617457
:100B3000696F6E206C6F61646564210A00756E7365
:100B400069676E65642E696F2F6D6963726F61707E
:100B500072730A004D6963726F41505253207630B0
:100B60002E32610A002D2D2D2D2D2D2D2D2D2D2DCB
:100B70002D2D2D2D0A006275665F706F696E74658C
:100B800072203E3D2062756600626572746F732F3D
:100B90006D776172652F666F726D617477722E6307
:100BA00000203D20307825700A00496E76616C691E
:100BB00064207074723A20003A20004173736572A9
:100BC00074696F6E206661696C65643A2000112457
:100BD0001FBECFEFD8E0DEBFCDBF12E0A0E0B1E096
:100BE000ECE0FEE602C005900D92AA31B107D9F7FC
:100BF00026E0AAE1B2E001C01D92A53CB207E1F7F0
:100C00000E94B9160C9404370C9400001092C00096
:100C100088E98093C10008951092C1000895FC01F5
:100C20002285211105C021E0228788EB8093C10035
:100C300008959A01AB01CA01B901969587957795F8
:100C40006795605C7D4B804F9F4F0E94133521500C
:100C500031093093C5002093C4000895E2ECF0E020
:100C60008081A4E0660F771FAA95E1F78F7C862B21
:100C7000808308959FB7F89484B1886284B99FBF38
:100C80008FB7F894229A8FBF8FB7F89424988FBFAC
:100C900080ED8CBD8CB581608CBD8DB58E7F8DBD9A
:100CA00008951CBC9FB7F89484B1837C84B99FBF1E
:100CB000089508950895FC01828508956FB7F8940A
:100CC000DC011A962C911A97211120C0E09122067E
:100CD000F0912306478D50A121A132A1421753075D
:100CE000A9F021E01A962C93A78DB0A185A196A119
:100CF000A817B90719F483A194A104C0A78DB0A1C6
:100D0000CD01019690A3878F8C918EBD6FBF089502
:100D1000CF93DF93EC018230910544F049E953E031
:100D200067E770E088E690E00E94A9322BE02C9FF4
:100D3000C0012D9F900D11248A5F9E4FDF91CF91AE
:100D400008951F920F920FB60F9211242F933F9385
:100D50008F939F93AF93BF93EF93FF93E091200600
:100D6000F0912106278D30A181A192A12817390782
:100D700031F488E98093C1001092100113C0A78D4F
:100D8000B0A185A196A1A817B90719F483A194A1D0
:100D900004C0A78DB0A1CD01019690A3878F8C913F
:100DA0008093C600FF91EF91BF91AF919F918F917A
:100DB0003F912F910F900FBE0F901F9018951F928B
:100DC0000F920FB60F9211242F933F934F935F937F
:100DD0008F939F93AF93BF93EF93FF93E091200680
:100DE000F091210697A58091C0008871892B87A773
:100DF0005091C60027A130A583A594A528173907CF
:100E000039F421A532A585A596A52817390761F0E3
:100E100021A532A587A190A5019741E028173907A0
:100E200009F040E0842F01C081E080FF04C087A565
:100E3000816087A712C0A1A5B2A55C9321A532A5A8
:100E400085A596A52817390719F483A594A503C08D
:100E500081A592A5019692A781A7FF91EF91BF91DD
:100E6000AF919F918F915F914F913F912F910F90F3
:100E70000FBE0F901F9018951F920F920FB60F92F2
:100E800011242F933F934F938F939F93AF93BF93CF
:100E9000EF93FF93E0912206F091230627A130A55E
:100EA00083A594A52817390739F421A532A585A56E
:100EB00096A52817390761F021A532A587A190A52D
:100EC000019741E02817390709F040E0842F01C05D
:100ED00081E080FD13C08EB5A1A5B2A58C9321A59C
:100EE00032A585A596A52817390719F483A594A5D9
:100EF00003C081A592A5019692A781A7E091220641
:100F0000F0912306278D30A181A192A128173907DE
:100F100099F0A78DB0A185A196A1A817B90719F4DA
:100F200083A194A104C0A78DB0A1CD01019690A387
:100F3000878F8C918EBD02C010921B01FF91EF91A3
:100F4000BF91AF919F918F914F913F912F910F90B2
:100F50000FBE0F901F9018959FB7F89483E085BB44
:100F600014BC15BC82E084BD85B5836085BD16BC0C
:100F700089EF87BDEEE6F0E080818E7F80838081FF
:100F8000826080839FBF0895CF93DF93EC01FB01C4
:100F90005FB7F894278D30A183A194A12817390752
:100FA000E9F421A132A185A196A128173907B1F44E
:100FB00081E05FBF80FD11C04FB7F894A1A1B2A13D
:100FC000CC9321A132A185A196A12817390799F4C4
:100FD00083A194A192A381A314C0DACF81A192A18D
:100FE000278D30A12150310941E08217930709F084
:100FF00040E0842FDECF21A132A12F5F3F4F32A3EB
:1010000021A34FBF80A991A9DC01ED91FC9100843F
:10101000F185E02D0995CE019927DF91CF910895B3
:10102000FC014FB7F89427A130A581A592A54FBF29
:101030002817390739F087A5897B79F024C087A55F
:10104000897BC9F74FB7F89427A130A581A592A550
:101050004FBF2817390799F3EECF2FB7F894A7A100
:10106000B0A585A596A5A817B90719F483A594A5D9
:1010700004C0A7A1B0A5CD01019690A787A38C912C
:101080002FBF90E008958FEF9FEF0895AF92BF922A
:10109000CF92DF92EF92FF920F931F93CF93DF9344
:1010A0007C015B016A01FC01008911892289338975
:1010B0000C3412452544334541F04CEB50E06CE7CD
:1010C00071E084E691E00E94A932E50100E010E0C1
:1010D0000C151D0559F0C7010E9410088F3F2FEF16
:1010E000920721F00F5F1F4F8993F2CFC801DF9164
:1010F000CF911F910F91FF90EF90DF90CF90BF9015
:10110000AF900895AF92BF92CF92DF92EF92FF928D
:101110000F931F93CF93DF937C015B016A01FC0166
:1011200000891189228933890C34124525443345BD
:1011300041F04CEB50E06CE771E084E691E00E94F6
:10114000A932E50100E010E00C151D0561F0899160
:10115000B701992787FD90950E94C407019619F061
:101160000F5F1F4FF1CFC801DF91CF911F910F91FA
:10117000FF90EF90DF90CF90BF90AF900895CF9306
:10118000DF93EC01488959896A897B894C3452453F
:101190006544734541F04CEB50E06CE771E084E648
:1011A00091E00E94A9328FA590E0DF91CF91089540
:1011B000CF93DF93EC01488959896A897B894C3444
:1011C00052456544734541F04CEB50E06CE771E0EB
:1011D00084E691E00E94A9321FA6DF91CF91089585
:1011E000CF93DF93EC01488959896A897B894C3414
:1011F00052456544734549F04CEB50E06CE771E0B3
:1012000084E691E00E94A93200C02F8D38A189A107
:101210009AA128173907C9F788A999A9DC01ED9186
:10122000FC910284F385E02D09958111EECF80E0D9
:1012300090E0DF91CF910895FC014FB7F89427A17A
:1012400030A581A592A54FBF28173907B1F02FB758
:10125000F894A7A1B0A585A596A5A817B90719F474
:1012600083A594A504C0A7A1B0A5CD01019690A720
:1012700087A38C912FBF90E008958FEF9FEF089583
:101280006FB7F894FC0147A150A521A532A56FBF07
:1012900081E04217530709F480E00895DC01D096FD
:1012A0008D919C91D197DC01ED91FC910480F581A9
:1012B000E02D0994EF92FF920F931F93CF93DF934A
:1012C000EC018B016230710540F042E651E064E3CD
:1012D00071E088E191E00E94A932F801EE0FFF1F52
:1012E000E05EF94FD183C0838E8D882341F045E6BF
:1012F00051E067E071E08AEF90E00E94A93281E05E
:101300008E8F1D8F0C8FC8010E94880699AB88AB09
:10131000DC0112968D919C911397892B41F44DE637
:1013200051E069EE70E088ED90E00E94A932E8A9F2
:10133000F9A984819581892B41F44EE651E067EC4F
:1013400070E086EB90E00E94A932E8A9F9A9E68056
:10135000F78002811381B2E0EB16F10440F441E220
:1013600051E06EE970E085E990E00E94A9321CA38B
:101370000BA31AA309A318A30F8FC7010197800F0E
:10138000911F9EA38DA3E8A9F9A9E084F1840481AB
:101390001581E2E0EE16F10440F441E251E06EE91D
:1013A00070E085E990E00E94A9321CA70BA71AA75C
:1013B00009A718A70FA3C7010197800F911F9EA728
:1013C0008DA788A999A9DC01ED91FC910190F0818C
:1013D000E02DBE01099540E855E260E070E0CE01E5
:1013E0000E944E091FA6CE01DF91CF911F910F9150
:1013F000FF90EF9008954FB7F894FC0121A532A516
:1014000030A727A34FBF08954FB7F894FC0121A13F
:1014100032A130A3278F4FBF0895CF93DF93EC0104
:101420000E94FB09CE01DF91CF910C94040ACF9367
:10143000DF93EC01488959896A897B894C3452458C
:101440006544734541F04CEB50E06CE771E084E695
:1014500091E00E94A9328E8D811108C04BE851E0C5
:1014600063E571E085E491E00E94A9321E8ECE0111
:101470000E94F00888A999A9DC01ED91FC910280F5
:10148000F381E02D099519AA18AACE010E940D0A30
:1014900080E090E0DF91CF910895CF93DF93EC014E
:1014A000488959896A897B894C345245654473451A
:1014B00041F04CEB50E06CE771E084E691E00E9473
:1014C000A932CE010E94170A6C8D7D8DCE010E943B
:1014D0005A09CE01DF91CF910895FC01CB0122E39F
:1014E000DF011D922A95E9F74CE452E565E473E5C6
:1014F000408B518B628B738B2DE43AE035832483D0
:1015000027E13AE03783268326E438E031832083DD
:1015100022E838E03383228320EF38E033872287C4
:101520002FEB38E03587248728ED38E0378726878A
:10153000BC01CF010C945A091F920F920FB60F9263
:1015400011240F931F932F933F934F935F936F93A8
:101550007F938F939F93AF93BF93CF93DF93EF933B
:10156000FF938091240690912506A0912606B091C4
:1015700027060196A11DB11D809324069093250690
:10158000A0932606B09327060BEA1AEBC0915A02E5
:10159000D0915B0288819981892BD1F18FB7F89422
:1015A00040912406509125066091260670912706E9
:1015B0008FBF88859985AA85BB85481B590B6A0B07
:1015C0007B0B77FD25C0CF3FD10509F048F42BEC0C
:1015D00030E040EC51E063EB71E0CE010E94BF329D
:1015E000EA81FB818881998191838083E881F981F7
:1015F0008A819B81938382831B821A82198218823B
:101600001B8B0A8BEC85FD85CE010C960995BECF10
:10161000FF91EF91DF91CF91BF91AF919F918F910A
:101620007F916F915F914F913F912F911F910F91FA
:101630000F900FBE0F901F9018958EE592E090933B
:101640005B0280935A0210925D0210925C0210922B
:101650005F0210925E028AE592E0909361028093AD
:10166000600210922406109225061092260610920F
:1016700027060E94AC0780912806882341F041E9A3
:1016800051E060EA71E08DE891E00E94A93281E0CA
:10169000809328060895EF92FF920F931F93CF93A4
:1016A000DF931F92CDB7DEB77C018B018983DB010D
:1016B00012968D919C911397892B41F44EE051E045
:1016C00068EF71E08EEE91E00E94A932D801129687
:1016D000ED91FC91139741E050E0BE016F5F7F4FA9
:1016E000C8010995019719F4C701992702C08FEF26
:1016F0009FEF0F90DF91CF911F910F91FF90EF908F
:1017000008950F931F93CF93DF931F92CDB7DEB74A
:101710008C01DC018D919C91892B41F442EF50E0CA
:101720006CED71E083ED91E00E94A932D801ED915A
:10173000FC9141E050E0BE016F5F7F4FC801099509
:10174000019719F4898190E002C08FEF9FEF0F900D
:10175000DF91CF911F910F910895CF93DF93CDB774
:10176000DEB79E01275F3F4F4D815E816BE47BE0DA
:101770008F8198850E94DA0BDF91CF9108950F93A6
:101780001F93CF93DF938C01EB018991882359F04C
:10179000B801992787FD90950E944B0B8F3F2FEF43
:1017A000920799F702C080E090E0DF91CF911F91FE
:1017B0000F9108952F923F924F925F926F927F9276
:1017C0008F929F92AF92BF92CF92DF92EF92FF9251
:1017D0000F931F93CF93DF93CDB7DEB7C45AD109D0
:1017E0000FB6F894DEBF0FBECDBFFC01C856DF4F69
:1017F00079836883C859D040C656DF4F59834883E0
:10180000CA59D0405901C257DF4F19821882CE58A9
:10181000D0409E012F5F3F4FC957DF4F3983288348
:10182000C758D040AE014A575F4FC757DF4F598363
:101830004883C958D0409F012F5F3F4FC456DF4FA8
:1018400039832883CC59D0408081853291F1882317
:1018500009F427C7C656DF4F68817981CA59D0403D
:10186000C856DF4FE881F981C859D0400995C25761
:10187000DF4FC880D980CE58D040FFEFCF1ADF0AA3
:10188000C557DF4FB982A882CB58D040C257DF4F2F
:10189000D982C882CE58D040C557DF4FA880B980C2
:1018A000CB58D040C456DF4FE881F981CC59D040A5
:1018B000C2CF8181853251F4AF014E5F5F4FC45674
:1018C000DF4F59834883CC59D040C4CFC456DF4F33
:1018D000A881B981CC59D040C256DF4F1882CE5969
:1018E000D040C357DF4F1882CD58D040CF56DF4F7E
:1018F0001882C159D040CE56DF4F1882C259D0400D
:10190000FD018D918B3209F45EC060F48032E9F004
:10191000833209F05FC031E0C357DF4F3883CD58C1
:10192000D040EECF8D3251F0803309F053C041E00A
:10193000C256DF4F4883CE59D040E2CF21E0CF5688
:10194000DF4F2883C159D040DBCF392D3C7F932E08
:10195000CE56DF4F4881C259D040942ACD56DF4F32
:101960005881C359D04050FB92F8CF56DF4F888141
:10197000C159D04080FB93F8C057DF4F9881C059C0
:10198000D04090FB94F8CC56DF4FE881C459D0404A
:10199000E0FB95F8C357DF4FF881CD58D040F0FBFE
:1019A00096F8CB56DF4F2881C559D04020FB97F8D9
:1019B000892D837009F0A4CF81E0CE56DF4F888354
:1019C000C259D0409DCF51E0CE56DF4F5883C25907
:1019D000D04096CFC357DF4F9881CD58D040C056E6
:1019E000DF4F9883C05AD0408A3229F0DF01212C82
:1019F000312C2AE013C0C5010296D5012D903C90F0
:101A000037FE09C0319421943108B1E0CF56DF4F41
:101A1000B883C159D04031965C0112C0FD018D914F
:101A200090ED980F9A3060F4F1012E9F10012F9FD6
:101A3000300C1124F0E32F1A3108280E311CEECFA0
:101A4000CF56DF4F2881C159D040222329F0C256FA
:101A5000DF4F1882CE59D04080818E3221F58181AE
:101A60008A3231F0DF011196612C712C2AE009C015
:101A7000D5016D907C90329695012E5F3F4F5901B4
:101A800015C0FD018D9190ED980F9A3078F4A30167
:101A9000249F3001259F700C112450E3651A7108B2
:101AA000680E711CEECF66246A94762CDF018D914E
:101AB0008836D9F018F48C3459F01FC08C3641F0B8
:101AC0008A37D9F4C057DF4F1882C059D04006C0BA
:101AD00081E0C057DF4F8883C059D040FD01CC560C
:101AE000DF4F1882C459D04012C0FD0191E0CC569E
:101AF000DF4F9883C459D04005C0CC56DF4F1882C1
:101B0000C459D040C057DF4F1882C059D040DF01C0
:101B10001196C456DF4FB983A883CC59D04080803A
:101B2000B5E68B1609F408C2B815ECF023E5821669
:101B300009F453C0281564F035E4831609F4FCC198
:101B400047E4841609F4F0C1882009F465C42AC06A
:101B500053E6851671F158150CF4CBC088E588164C
:101B600009F48DC01FC090E7891609F471C098155B
:101B700064F0A7E68A1609F4D7C18A160CF4DBC113
:101B8000B9E68B1609F4B5C00DC0E5E78E1609F469
:101B900076C0F8E78F1609F46DC023E7821202C001
:101BA000D12C1DC0C557DF4FB982A882CB58D04079
:101BB0003FC4A5014E5F5F4FC557DF4F5983488330
:101BC000CB58D040D5018C918983D12C8E010E5FEA
:101BD0001F4FFE0131965F0139C4DD24D394950176
:101BE0002E5F3F4FC557DF4F39832883CB58D040F6
:101BF000D501AD90BC90A114B10421F4A0E2AA2EAD
:101C0000A1E0BA2E77FE04C0F0E16F2EF7E27F2E3E
:101C10008501DD20C1F0F8018491882309F416C400
:101C2000C8018A199B09861597050CF00FC40F5F30
:101C30001F4FF1CFC8018A199B09861597050CF033
:101C400005C40F5F1F4FD8018C918111F3CFFEC3E4
:101C5000F5013296C557DF4FF983E883CB58D04062
:101C6000D5016D917C9180E090E0E4E7EE2EE1E01B
:101C7000FE2E2BC074E8E72E71E0F72E04C064E757
:101C8000E62E61E0F62EC057DF4FB881C059D04034
:101C9000BB2371F0F5013496C557DF4FF983E88314
:101CA000CB58D040D5016D917D918D919C910DC007
:101CB000C5010296F50160817181C557DF4F998397
:101CC0008883CB58D04080E090E021E0CD56DF4FB4
:101CD0002883C359D04035E7831205C0CD56DF4F66
:101CE0001882C359D040CE56DF4F1882C259D04017
:101CF00042C0C057DF4F4881C059D040442371F0E3
:101D0000C5010496C557DF4F99838883CB58D040CF
:101D1000D5016D917D918D919C910FC0F501329609
:101D2000C557DF4FF983E883CB58D040D5016D917B
:101D30007C91882777FD8095982F97FF13C0909509
:101D40008095709561957F4F8F4F9F4FCD56DF4F98
:101D50001882C359D040B2E0CE56DF4FB883C25983
:101D6000D04005C0CD56DF4F1882C359D04054E74C
:101D7000E52E51E0F52EE1E0CB56DF4FE883C55963
:101D8000D040611571058105910529F4CB56DF4FCF
:101D90001882C559D0406114710441F4CB56DF4F0D
:101DA000F881C559D040FF2309F47CC0CD56DF4FE0
:101DB0002881C359D0408E010A571F4F2130A9F006
:101DC0002AE030E040E050E00E941335F701E60FD2
:101DD000F71F8081D8018E938D01B901CA01611569
:101DE00071058105910561F715C0FB01EF70FF27B3
:101DF000EE0DFF1D2081F80122938F0144E096959E
:101E00008795779567954A95D1F761157105810595
:101E1000910559F777FE49C0C256DF4FF881CE5978
:101E2000D040FF2309F441C0292D2C7F922ECE569D
:101E3000DF4F3881C259D040932ACD56DF4F4881B9
:101E4000C359D04040FB92F8CF56DF4F5881C1595B
:101E5000D04050FB93F8C057DF4F8881C059D04025
:101E600080FB94F8CC56DF4F9881C459D04090FB4A
:101E700095F8C357DF4FA881CD58D040A0FB96F806
:101E8000CB56DF4FB881C559D040B0FB97F8292D0C
:101E9000237081E090E011F480E090E03101681A55
:101EA000790A03C08E010A571F4FC757DF4F888139
:101EB0009981C958D040801B910BF80120E35F0144
:101EC000861597051CF422930196F9CFC357DF4F6F
:101ED000E881CD58D040EE23A1F0CB56DF4FF881FA
:101EE000C559D040FF2369F0882D8F7D883549F48E
:101EF000F5013197808222E0A21AB10880E3D50172
:101F00008C93C957DF4FE881F981C758D040AE168E
:101F1000BF0608F095C247EB52E06DE172E08AE03F
:101F200092E00E94A9328CC28A948A9411E06114D2
:101F3000710449F002C0812C10E077FE07C026E052
:101F4000622E712C03C066246394712C95012C5F62
:101F50003F4FC557DF4F39832883CB58D040D50139
:101F6000CD90DD90ED90FC9020E030E0A901C7011C
:101F7000B6010E94493387FF0AC0F7FAF094F7F8D8
:101F8000F094B2E0CE56DF4FB883C259D040C1566C
:101F9000DF4F1883CF59D040AA24A394B12CAC0EA4
:101FA000BD1EA20CB31C20E030E040E85FE3C70197
:101FB000B6010E94983487FD32C0412C512C27EB8A
:101FC00033E44AEB51E5C701B6010E94983487FD1E
:101FD0000EC029EF32E045E150E5C701B6010E948D
:101FE0004D336B017C01EAE04E0E511CE8CF20E03E
:101FF00030E040E251E4C701B6010E94983487FD09
:1020000049C020E030E040E251E4C701B6010E943F
:102010004D336B017C01FFEF4F1A5F0AE8CF20E0E0
:1020200030E0A901C701B6010E944933412C512C6F
:10203000882381F12FEF36EE4BED5EE2C701B6014A
:102040000E944933181674F029EF32E045E150E55B
:10205000C701B6010E949C346B017C012AE0421A40
:102060005108E8CF20E030E040E85FE3C701B60167
:102070000E94493387FF0EC020E030E040E251E487
:10208000C701B6010E949C346B017C0131E0431A08
:102090005108E8CF112301F14614570444F44CEFE2
:1020A00044164FEF54061CF064187508812C51E05B
:1020B000651A710881E0C357DF4F9881CD58D04031
:1020C0009827C156DF4F9883CF59D040A1E0C3571E
:1020D000DF4FA883CD58D04081104BC057FE3DC084
:1020E00080E3E1E0F0E0EC0FFD1FE20DF31D8083E3
:1020F000F5016114710459F4C357DF4FB881CD580D
:10210000D040B11104C0319680E090E006C0329614
:102110008EE2D50111968C93C30192012F5F3F4F40
:10212000280F391F40E38F018217930729F000978A
:1021300019F041930197F7CF9301209530954216FE
:1021400053060CF4D1C03C01E1E0F0E0CA56DF4F89
:10215000F983E883C659D0405CC02227332724196D
:102160003509CA56DF4F39832883C659D0408501C7
:1021700050C08501CA56DF4F19821882C659D04017
:1021800048C0C701B6010E94B533CF55DF4F688301
:1021900079838A839B83C15AD040CF55DF4F4881D2
:1021A0005981C15AD040BA01882777FD8095982F70
:1021B0000E94E8339B01AC01C701B6010E94E432E2
:1021C00020E030E040E251E40E949C346B017C014D
:1021D00098012F5F3F4FCF55DF4F8881C15AD040C4
:1021E000805DD8018C93CA56DF4F88819981C6598A
:1021F000D0400196CA56DF4FE881F981C659D040D8
:10220000EF2B91F0CA56DF4F99838883C659D0408F
:102210008901CA56DF4F28813981C659D0406216DC
:1022200073060CF0AECF14C06114710439F4C357B7
:10223000DF4FF881CD58D040FF2339F098012E5F51
:102240003F4FEEE2D8011196EC9381E090E0DACFB7
:1022500020E030E040EA50E4C701B6010E94983423
:1022600087FD42C0F80181E090E030E322912E32F8
:1022700051F0820F8A3321F0808380E090E003C028
:10228000308381E090E0AE16BF0680F3892B61F1C8
:102290008820B9F0F801AE16BF0678F4DF018E9100
:1022A0009D018E3239F4CF010297DC018C9180833D
:1022B000F90101C080833197EECFBFEF4B1A5B0A63
:1022C0000BC00F5F1F4FF801AE16BF0628F4DF01E9
:1022D0008E918083FD01F8CF81E3E1E0F0E0EC0F27
:1022E000FD1FE20DF31D8083C156DF4FE881CF59FA
:1022F000D040EE2349F0F8018291803311F48F0130
:10230000FACF8E3209F48F018820B1F1D8018C9276
:10231000C801029657FE07C02DE211962C935194E6
:102320004194510803C02BE2F80121838C01065F20
:102330001F4F20E030E02F5F3F4FF8013196C20180
:102340006AE070E00E94FF34805DD8018C932B011D
:102350006115710511F08F01EECF22303105DCF3EC
:10236000E21BF30B199781918E93215031091216BC
:102370001306CCF309501109C256DF4FB881CE596C
:10238000D040BB2309F461C0E92DEC7F9E2ECE56D0
:10239000DF4FF881C259D0409F2ACD56DF4F2881A8
:1023A000C359D04020FB92F8CF56DF4F3881C15936
:1023B000D04030FB93F8C057DF4F4881C059D04020
:1023C00040FB94F8CC56DF4F5881C459D04050FBA5
:1023D00095F8C056DF4F8881C05AD04080FB96F8F0
:1023E000CB56DF4F9881C559D04090FB97F8292DE7
:1023F000237081E090E011F480E090E09101281BCF
:10240000390BF50140E35F01C8018E1B9F0B82175A
:102410009307DCF44293F7CFC557DF4FB982A88208
:10242000CB58D040C456DF4FF983E883CC59D04015
:10243000D12C0FE111E08CE1A82E81E0B82E06C06E
:10244000D12C8E010A571F4F01C0D12C0A191B092C
:10245000201631060CF440C0A92DAC7F9A2ECE5622
:10246000DF4FB881C259D0409B2ACD56DF4FE8815B
:10247000C359D040E0FB92F8CF56DF4FF881C159E5
:10248000D040F0FB93F8C057DF4F2881C059D040AF
:1024900020FB94F8CC56DF4F3881C459D04030FB34
:1024A00095F8C056DF4F4881C05AD04040FB96F89F
:1024B000CB56DF4F5881C559D04050FB97F871017A
:1024C000E01AF10A292D237081E090E011F480E0F8
:1024D00090E0E81AF90A02C0E12CF12CCF56DF4F48
:1024E0008881C159D040811122C031E0E31AF1083E
:1024F000F7FC1DC0C656DF4F68817981CA59D040AC
:1025000080E2C856DF4FE881F981C859D04009956B
:10251000C257DF4F28813981CE58D0402F5F3F4FBF
:10252000C257DF4F39832883CE58D040DECF492DA4
:102530004C7F942ECE56DF4F5881C259D040952AF9
:10254000CD56DF4F8881C359D04080FB92F8CF56DB
:10255000DF4F9881C159D04090FB93F8C057DF4FAF
:10256000A881C059D040A0FB94F8CC56DF4FB88169
:10257000C459D040B0FB95F8C056DF4FE881C05A2F
:10258000D040E0FB96F8CB56DF4FF881C559D040DC
:10259000F0FB97F8892D837001F1813011F48BE203
:1025A00001C08DE2C656DF4F68817981CA59D0409B
:1025B000C856DF4FE881F981C859D0400995C25704
:1025C000DF4F28813981CE58D0402F5F3F4FC2570F
:1025D000DF4F39832883CE58D040D1100AC035014F
:1025E000C257DF4FA880B980CE58D040A618B70890
:1025F00021C0C257DF4FC880D980CE58D040AC1818
:10260000BD080150110917FD2DC0F501EC0DFD1D90
:102610008491C656DF4F68817981CA59D040C85627
:10262000DF4FE881F981C859D0400995FFEFCF1AF3
:10263000DF0AE7CF6501C60CD71C0150110917FD51
:1026400011C0C656DF4F68817981CA59D040D30185
:102650008D913D01C856DF4FE881F981C859D040BE
:102660000995E8CFCF56DF4FF881C159D040FF23FD
:1026700009F40CC921E0E21AF108F7FC07C9C656B3
:10268000DF4F68817981CA59D04080E2C856DF4F58
:10269000E881F981C859D0400995FFEFCF1ADF0AC8
:1026A000E9CFC257DF4F88819981CE58D040CC55B1
:1026B000DF4F0FB6F894DEBF0FBECDBFDF91CF91D5
:1026C0001F910F91FF90EF90DF90CF90BF90AF9050
:1026D0009F908F907F906F905F904F903F902F9042
:1026E0000895CF92DF92EF92FF920F931F93CF93B3
:1026F000DF931F92CDB7DEB77C01462F82E8860FAD
:102700009701265B3E4F6901823010F06B3149F42E
:10271000F601608171818BE190E049830E944B0B4F
:102720004981D701A05BBE4F2C9111965C91119706
:10273000842F90E0FC01E227EE0FFF1FED5CFC4FC1
:1027400025913491052F10E0202731272D933C93BC
:10275000F601608171810F90DF91CF911F910F91F0
:10276000FF90EF90DF90CF900C944B0B2F923F9205
:102770004F925F926F927F928F929F92AF92BF9291
:10278000CF92DF92EF92FF920F931F93CF93DF933D
:10279000CDB7DEB7C455D1090FB6F894DEBF0FBE72
:1027A000CDBF8C014C0126EB821A2EEF920A5C0100
:1027B0004BEAA41A4EEFB40A7C0184EBE81A8EEFC0
:1027C000F80AD4018D919C910E94810B8F3FBFEF3D
:1027D0009B0709F425C1F50120812111F0C08E3736
:1027E000910509F0DEC0D7014D915C91F801E25BE3
:1027F000FE4F1F014231510508F4C5C0808191810F
:10280000883B904F09F0BFC0D801FE013896CE0139
:102810000E962D912695203209F420E02193E81799
:10282000F907B9F7D80116968C91169786958F708F
:102830008E871796FE013196CF0106962D9126952B
:10284000203209F420E02193E817F907B9F7F801DD
:102850003D96D8011D968C9186958F708F83299611
:102860004FAC2997512C61E070E0808180FF10C04F
:1028700028965FAE289729964FAE2997818190E0E0
:102880002B969FAF8EAF2B97039709F07CC05AC051
:10289000B7E0B51568F366246394712C6C0E7D1E49
:1028A00027E0529E600C711C1124CF0101966396A3
:1028B0009FAF8EAF639780E090E0252D30E0639668
:1028C000AEADBFAD6397DD906396BFAFAEAF63971C
:1028D000D694B0E2DB1202C0C12C01C0CD2CD301D2
:1028E000A80FB91F1E96CC9201968630910539F734
:1028F00037969081B7E0CB2EC29ED001C39EB00D1B
:102900001124CC24C394D12CCC0EDD1EAC0DBD1DE6
:10291000892F86958F7054968C9397FF08C0CB01B2
:1029200002C0880F991F2A95E2F7482A09C0DB01E7
:1029300002C0AA0FBB1F2A95E2F79D0120954222F3
:10294000539493CF82812C968FAF2C97803FD9F4EC
:10295000339642505109C8018E1B9F0B480F591FD7
:1029600060965FAF4EAF60972E96FFAFEEAF2E979B
:10297000F801EE5AFE4F0190F081E02D309719F0EA
:10298000CE010196099581E0F801EC5AFE4F808353
:102990008FEF9FEFD1018D939C93F70111821082ED
:1029A00010CF8F37910529F4F801EC5AFE4F1082B1
:1029B00008CF8B31910519F481E0808302CFF801B3
:1029C000EC5AFE4F2081222341F1D7012D913C91F9
:1029D0002A34B1E03B0700F5A9014F5F5F4FF701D3
:1029E00051834083F801E20FF31F8083D801A25B7B
:1029F000BE4F2D913C911197F901E827FF27EE0F6B
:102A0000FF1FED5CFC4F85919491232F3327822784
:102A100093278D939C9301C01082D5011C92D1CE37
:102A2000F40100811181D8011C968D919C911D9714
:102A3000892B41F449E451E061E273E087E193E0DE
:102A40000E94A932D8011C96ED91FC911D97C801F6
:102A50000995892BC9F0F40100811181D8011E96D6
:102A60008D919C911F97892B41F442E551E065E0DF
:102A700073E088EF92E00E94A932D8011E96ED9192
:102A8000FC911F97C8010995CC5ADF4F0FB6F894F7
:102A9000DEBF0FBECDBFDF91CF911F910F91FF9091
:102AA000EF90DF90CF90BF90AF909F908F907F90EE
:102AB0006F905F904F903F902F9008952F923F928C
:102AC0004F925F926F927F928F929F92AF92BF923E
:102AD000CF92DF92EF92FF920F931F93CF93DF93EA
:102AE000CDB7DEB72C970FB6F894DEBF0FBECDBFC3
:102AF0009C878B877B015A01288739871D830C832C
:102B00006115710541F446EE50E066EE72E081EE2B
:102B100092E00E94A93222E0A216B10440F447EEEE
:102B200050E06FEC72E081EC92E00E94A9324B849D
:102B30005C8480EB481A8EEF580A8FEF9FEFF2010A
:102B4000918380836B847C84F6EB6F1AFEEF7F0A9F
:102B5000F301608171818EE790E00E944B0BC12CE4
:102B6000D12CC50101979F838E83CA14DB0409F41D
:102B700068C021E029838E819F81C816D90609F09B
:102B80001982F70101900020E9F78F010150110926
:102B90000E191F090730110510F006E010E0C801FA
:102BA0008E0D9F1D9B838A8317018A819B81281626
:102BB000390601F1F10121911F01822E912CC401EE
:102BC0002A870E94A5362A85892B51F4203241F0AC
:102BD00049EC50E06CE772E085E692E00E94A93291
:102BE000C4010E94B936682F660F8B859C850E94B0
:102BF0007113DBCF0630110599F0812C912CE6E0A2
:102C0000F0E0E01BF10B8F018016910648F460E4C0
:102C10008B859C850E947113FFEF8F1A9F0AF4CF5A
:102C200089818066F7016681660F682B8B859C859C
:102C30000E947113FFEFCF1ADF0A27E0E20EF11CAA
:102C400094CF63E08B859C850E94711360EF8B8528
:102C50009C850E94711308851985EC80FD80E00E2B
:102C6000F11E0E151F0541F0F80161918F018B8552
:102C70009C850E947113F5CFF201608111816095EE
:102C80008B859C850E947113612F60958B859C8537
:102C90000E947113F20180819181883B904F41F035
:102CA00040E051E06FEA72E08EE892E00E94A932C3
:102CB000F301608171818EE790E02C960FB6F89455
:102CC000DEBF0FBECDBFDF91CF911F910F91FF905F
:102CD000EF90DF90CF90BF90AF909F908F907F90BC
:102CE0006F905F904F903F902F900C944B0BEF9212
:102CF000FF920F931F93CF93DF93EC018B017A0127
:102D0000009741F44EE051E063E572E08FE492E019
:102D10000E94A9320115110541F44FE051E06DE325
:102D200072E085E392E00E94A93286E591E0FE011F
:102D30009C01119221503040E1F7FE01E65BFE4F0D
:102D4000118300833896F182E08232978FEF9FEFF4
:102D500091838083C25BDE4F99838883DF91CF911B
:102D60001F910F91FF90EF90089562EB73E00C9428
:102D70003A1F78940E941D0B60E070E082EB93E0B4
:102D80000E946D0A40E855E260E070E082EB93E05B
:102D90000E944E0986E08093C20067E070E08AE3FB
:102DA00095E00E943B1C45EB56E16AE375E084EE3A
:102DB00093E00E94771684EE93E00E94DB1D8FB7AC
:102DC000F894C0902406D0902506E0902606F09056
:102DD00027068FBFC1E084EE93E00E94B613809176
:102DE000620281112EC082EB93E00E944009882389
:102DF00041F182EB93E00E941C098093650290935D
:102E000066022091630230916402F901E959FD4F95
:102E1000A9014F5F5F4F8083509364024093630228
:102E20002934314010F0C09362028FB7F894C090FB
:102E30002406D0902506E0902606F09027068FBF46
:102E40001BC08091630290916402892BA9F02FB777
:102E5000F8948091240690912506A0912606B091C1
:102E600027062FBF8C199D09AE09BF090397A1053D
:102E7000B10514F0C093620280916202882309F4C4
:102E8000AACF609163027091640224EE33E042EBBA
:102E900053E087E692E00E94312310926202109282
:102EA00064021092630297CFCF93DF93EC0170938B
:102EB0001506609314068830910544F041E250E015
:102EC0006BE375E083E395E00E94A93210928000E5
:102ED00089E18093810081E896E090938700809358
:102EE00086008C2F806480937C0087B121E030E0E5
:102EF00001C0220FCA95EAF7922F9095892387B9CE
:102F000088B1892388B980917E00822B80937E00CE
:102F100087E080937B008CEE80937A00DF91CF91E5
:102F200008951F920F920FB60F9211242F933F9383
:102F30004F935F936F937F938F939F93AF93BF93C1
:102F4000EF93FF9380E286BB6091780070917900E7
:102F5000769567957695679560588091140690915F
:102F600015060E94531980912A06882349F0809102
:102F70001406909115060E94221B807F886007C06E
:102F800080912906882311F088E801C080E88BB978
:102F9000FF91EF91BF91AF919F918F917F916F9131
:102FA0005F914F913F912F910F900FBE0F901F9007
:102FB0001895AF92BF92CF92DF92EF92FF920F934C
:102FC0001F93CF93DF936C01EB017A01DC015096E4
:102FD0000D911D912D913C9153970D341B44234528
:102FE000364441F04EE650E062E675E08CE495E050
:102FF0000E94A9325E01CE018E0D9F1DF601EB5796
:10300000FF4FA816B90671F4C5018C1B9D0BDF910B
:10301000CF911F910F91FF90EF90DF90CF90BF90D5
:10302000AF9008956FB7F894408151812281338128
:103030006FBF4217530741F32FB7F894C09024068F
:10304000D0902506E0902606F09027062FBF6FB798
:10305000F89440815181228133816FBF4217530719
:10306000A9F44FB7F89400912406109125062091F9
:103070002606309127064FBF0C191D092E093F095E
:10308000101611061206130614F7BECF6FB7F89488
:1030900020813181468157812417350719F44481F5
:1030A000558105C020813181A9014F5F5F4F518358
:1030B0004083D9012C916FBFD5012D935D01A1CF24
:1030C0006F927F928F929F92AF92BF92CF92DF9238
:1030D000EF92FF920F931F93CF93DF93EC018B013D
:1030E0007A0188899989AA89BB898D349B44A34533
:1030F000B64441F04EE650E062E675E08CE495E0BF
:103100000E94A932F801A8014E0D5F1D99249394E5
:10311000BB24B3943E0187E7680E711C20E430E0C5
:1031200065E370E088E0E82EF12CE417F50709F478
:103130004EC0AFB6F894CFA4D8A88BA99CA9C81646
:10314000D90639F4C9A8DAA88DA99EA9C816D90646
:1031500069F0C9A8DAA88FA598A901978824839453
:10316000C816D90609F0812C882D01C081E0AFBEB8
:1031700080FDDFCFD190AFB6F89489A99AA9DC0180
:10318000DC92C9A8DAA88DA99EA9C816D90619F497
:103190008BA99CA903C089A99AA901969AAB89AB6E
:1031A000AFBED3018C9181110CC03EA72DA71CA6E8
:1031B0001BA61AA69C92299A7BA36AA35B9AB0923B
:1031C0002A068FB7F894FDA2ECA28FBFAECFCF0135
:1031D000801B910BDF91CF911F910F91FF90EF908A
:1031E000DF90CF90BF90AF909F908F907F906F9027
:1031F0000895CF93DF93EC01488959896A897B89C7
:103200004D345B446345764441F04EE650E062E65F
:1032100075E08CE495E00E94A932C958DF4F88819F
:103220008111FDCF80E090E0DF91CF910895CF93A1
:10323000DF93EC01488959896A897B894D345B4465
:103240006345764441F04EE650E062E675E08CE47A
:1032500095E00E94A9322FB7F894C852DF4F8881B9
:1032600099812FBFDF91CF910895CF93DF93EC0128
:10327000488959896A897B894D345B446345764422
:1032800041F04EE650E062E675E08CE495E00E9485
:10329000A9328FB7F894C852DF4F198218828FBFB6
:1032A000DF91CF910895EF92FF920F931F93CF93E9
:1032B000DF93FC018C0101531F4FD8014D915C91AC
:1032C0001197129711965C934E93A555B1098D9164
:1032D0009C91119716962D913C9117978217930701
:1032E00029F414962D913C91159706C08D919C91CF
:1032F00011979C012F5F3F4F11963C932E93EC0149
:10330000288126029001112435952795359527951A
:10331000E801398328837F01D3EDED0EF11CE7012D
:10332000888199818F010F521F4FE801998388830B
:1033300095958795840F951F820F931FE7019983B9
:103340008883AF014B525F4F21E0181619060CF02D
:1033500020E0EA018881880F822B888312968D9164
:103360009C911397EC01688312962D913C911397D1
:1033700016968D919C9117972817390729F4149662
:103380008D919C91159705C012968D919C911397E4
:10339000019613969C938E931297DA019C91892F34
:1033A0008695869589278370DF01AA52BF4F8330A7
:1033B00039F48C91803214F48F5F01C081508C936A
:1033C0008C91885F8C9380340CF435C18F738C930F
:1033D000DF01A952BF4F8C91880F97702BEF290FF7
:1033E000233010F0933009F481608C939C91892FE5
:1033F0008695892780958170968D990F892B868F68
:103400008E3709F04EC0DF01AB57BF4F2D913C9175
:10341000119714968D919C9115972817390759F497
:1034200012962D913C91139716968D919C9117971A
:103430002817390779F012962D913C9113978D91A9
:103440009C911197019741E02817390709F040E056
:10345000842F01C081E080FDDDC01296CD91DC910A
:1034600013978EE7888312962D913C9113971696A9
:103470008D919C9117972817390729F414968D91EF
:103480009C91159705C012968D919C91139701966A
:1034900013969C938E93129781E081A32A9A41E020
:1034A000BCC0982F9F779F3719F411A22A98C3C0E8
:1034B00091A1992309F4BFC0982F9F739E3309F4FB
:1034C000BAC080FF03C080A1806880A3878D8F5F12
:1034D000878F90A1883008F4ACC0DF01AB57BF4F95
:1034E00082E8890F823018F09B3109F04BC02D9192
:1034F0003C91119714968D919C9115972817390737
:1035000059F412962D913C91139716968D919C919A
:1035100017972817390779F012962D913C91139738
:103520008D919C911197019741E02817390709F077
:1035300040E0842F01C081E080FD20C01296CD9133
:10354000DC9113978BE1888312962D913C91139710
:1035500016968D919C9117972817390729F4149680
:103560008D919C91159705C012968D919C91139702
:10357000019613969C938E93129704C011A22A98D9
:1035800040E001C041E02D913C91119714968D913E
:103590009C9115972817390759F412962D913C9153
:1035A000139716968D919C9117972817390779F0E4
:1035B00012962D913C9113978D919C9111970197A3
:1035C00051E02817390709F050E0852F01C081E04C
:1035D00080FD20C080A11296CD91DC911397888345
:1035E00012962D913C91139716968D919C91179759
:1035F0002817390729F414968D919C91159705C0C9
:1036000012968D919C911397019613969C938E938D
:10361000129703C011A22A9840E010A2178E411100
:103620000AC0E852FF4F808191818160918380833D
:1036300002C0969590A3DF91CF911F910F91FF90BB
:10364000EF900895DC0196968C9196978111EAC0CF
:1036500098968C9198978111A0C09F962D913C913E
:10366000D097D1968D919C91D2972817390739F42C
:1036700094968D919C919597892B09F45CC09996AD
:103680008C919997811103C09A961C929A9781E028
:1036900099968C93999792968D919C919397009778
:1036A00089F59F962D913C91D097D1968D919C91C3
:1036B000D2972817390751F494968D919C9195973C
:1036C000019795969C938E93949721C09F96ED9128
:1036D000FC91D097D5968D919C91D697E817F907D4
:1036E00029F4D3968D919C91D49706C09F96ED9125
:1036F000FC91D097CF010196D0969C938E939F9783
:10370000808106C0019793969C938E9392978EE743
:1037100097968C93979797968C9197978B3199F56D
:103720009F962D913C91D097D1968D919C91D29757
:103730002817390749F45B9810922A06A958BF4FF9
:103740001C92299880E008959F96ED91FC91D09766
:10375000D5968D919C91D697E817F90729F4D396C1
:103760008D919C91D49706C09F96ED91FC91D09736
:10377000CF010196D0969C938E939F9780819796C8
:103780008C93979706C08E57823018F499961C92A6
:10379000999781E098968C93989799962C91999700
:1037A0009D968D919C919E972223A9F09A962C919B
:1037B0009A97253080F09A961C929A9780349105BA
:1037C00019F485E790E002C080E490E09E969C9317
:1037D0008E939D9723C098963C91989797962C919D
:1037E0009797232341F09A968C919A978F5F9A9698
:1037F0008C939A970FC09A961C929A978034910551
:1038000019F485E790E002C080E490E09E969C93D6
:103810008E939D97330F98963C93989788E0969651
:103820008C9396979D96ED91FC919E979B968D918A
:103830009C919C97E80FF91F9F0131709C963C93D7
:103840002E939B9796968C919697815096968C93F3
:10385000FF27E038F10530F08FEF90E0AC014E1B10
:103860005F0BFA01E159FA4F84912F3F310511F0B6
:1038700008F080950895CF93DF93EC01CB012AEDFA
:10388000FE0111922A95E9F77D8F6C8F20E430E0DC
:103890003EA72DA79E0120583F4FFE01E858FF4F3D
:1038A0003583248333832283318320832C5F3F4FEE
:1038B00037832683275F3F4FDE01AB57BF4F1596F7
:1038C0003C932E93149713963C932E931297119634
:1038D0003C932E93215C3F4F17963C932E93169763
:1038E000255931093CAB2BAB3AAB29AB38AB2FA7F1
:1038F000215C3F4F3EAB2DAB24E030E0A281B38191
:103900001C9262817381468157816417750719F48F
:103910004481558104C0428153814F5F5F4F53837F
:103920004283215031092115310541F7BE010E9422
:1039300054178AB1886F8AB9219A229A4DE45BE4C0
:1039400063E576E4488B598B6A8B7B8B80E698E144
:103950009B838A8389ED97E19983888389EF98E136
:103960009B878A8787E199E19D878C8785E399E129
:103970009F878E87DF91CF9108956FEF8AE290E065
:103980000E94F23680914B01882341F08EEC9AE040
:103990009F938F930E9427320F900F9080914B013D
:1039A00081110CC080911F06811108C08BEC9AE038
:1039B0009F938F930E9427320F900F900895CF937B
:1039C0008AE290E00E94DA36893609F0C7C046E004
:1039D00050E064E270E085E491E00E94CA3646E07F
:1039E00050E06EE170E08FE391E00E94CA3646E05D
:1039F00050E068E170E089E391E00E94CA3646E059
:103A000050E062E170E081E391E00E94CA3681E11A
:103A100090E00E94DA3690E090931C0680931B069B
:103A200080E190E00E94DA3690E090931A0680934D
:103A300019068FE090E00E94DA3690E0909338010A
:103A4000809337018EE090E00E94DA3690E0909308
:103A5000300180932F018DE090E00E94DA3691E0F2
:103A6000811101C090E0909350018CE090E00E94A1
:103A7000DA3691E0811101C090E090934F018BE024
:103A800090E00E94DA3691E0811101C090E09093BD
:103A90004E018AE090E00E94DA3691E0811101C087
:103AA00090E090934D0189E090E00E94DA3691E039
:103AB000811101C090E090934C0188E090E00E9459
:103AC000DA36C1E0811101C0C0E0C0934B0187E04C
:103AD00090E00E94DA3691E0811101C090E090936D
:103AE0001F0686E090E00E94DA3680932C0185E084
:103AF00090E00E94DA3680932B0184E090E00E94EF
:103B0000DA3680932A0183E090E00E94DA368093CF
:103B1000290182E090E00E94DA3680932E0181E054
:103B200090E00E94DA3680932D0180E090E00E94C0
:103B3000DA3691E0811101C090E090931606CC2313
:103B4000C1F180911E068823A1F185EB9AE09F9335
:103B50008F930E9427320F900F902BC080911E06EA
:103B6000882381F080911F0681110CC080914B0148
:103B7000882341F08CE89AE09F938F930E9427322C
:103B80000F900F9080911E06882381F080911F0670
:103B900081110CC080914B01811108C089E89AE025
:103BA0009F938F930E9427320F900F9081E0809314
:103BB0001D06CF91089590935E0680935D060E9446
:103BC000DF1C81E080931E0680914B018823E9F180
:103BD0002FEF85EA9EE0215080409040E1F700C041
:103BE000000085E69BE09F938F930E94273284E537
:103BF0009BE09F938F930E9427328DE39BE09F93DE
:103C00008F930E9427320F900F900F900F900F907C
:103C10000F9080911D06882341F08EE19BE09F93D9
:103C20008F930E9427320F900F9081E19BE09F932A
:103C30008F930E94273280E09BE09F938F930E9496
:103C400027320F900F900F900F90089546E050E0AC
:103C500064E270E085E491E00E94E23646E050E0E4
:103C60006EE170E08FE391E00E94E23646E050E0C2
:103C700068E170E089E391E00E94E23646E050E0BE
:103C800062E170E081E391E00E94E23660911B0600
:103C900081E190E00E94F2366091190680E190E0A7
:103CA0000E94F236609137018FE090E00E94F23678
:103CB00060912F018EE090E00E94F23660915001F9
:103CC0008DE090E00E94F23660914F018CE090E030
:103CD0000E94F23660914E018BE090E00E94F23635
:103CE00060914D018AE090E00E94F23660914C01B3
:103CF00089E090E00E94F23660914B0188E090E00C
:103D00000E94F23660911F0687E090E00E94F23632
:103D100060912C0186E090E00E94F23660912B01C8
:103D200085E090E00E94F23660912A0184E090E004
:103D30000E94F2366091290183E090E00E94F23601
:103D400060912E0182E090E00E94F23660912D0198
:103D500081E090E00E94F2366091160680E090E0EB
:103D60000E94F23669E68AE290E00E94F236809183
:103D70004B01882341F084E79AE09F938F930E9440
:103D800027320F900F9080914B0181110CC08091D0
:103D90001F06811108C081E79AE09F938F930E94CC
:103DA00027320F900F9008950F931F939C01CA0123
:103DB00046E0EFE3F1E0A9E4B6E001900D924A9508
:103DC000E1F74091190640934F0646E0E5E4F1E043
:103DD000AAEAB6E001900D924A95E1F740911B06E0
:103DE0004093B00646E0E9E3F1E0A0E5B6E00190DB
:103DF0000D924A95E1F7409137014093560646E00F
:103E0000E1E3F1E0AAEBB6E001900D924A95E1F70B
:103E100040912F014093C00647E0E9E4F6E0ABE2B1
:103E2000B6E001900D924A95E1F747E0EAEAF6E044
:103E3000A2E3B6E001900D924A95E1F747E0E0E594
:103E4000F6E0A9E3B6E001900D924A95E1F747E06C
:103E5000EAEBF6E0A0E4B6E001900D924A95E1F7B6
:103E60008B0144E050E06BE276E00E945E151F910A
:103E70000F9108956F927F928F929F92AF92BF920F
:103E8000CF92DF92EF92FF920F931F93CF93DF9326
:103E900000D000D000D0CDB7DEB78C013B018091BF
:103EA00050018823E9F080914C01882329F064E9CE
:103EB00071E0C3010E94BF0BD80116968C911F922E
:103EC0008F931F930F938AE991E09F938F937F9233
:103ED0006F920E94AD0B0FB6F894DEBF0FBECDBF40
:103EE00080914F01882331F180914C01882361F04A
:103EF00085EA91E09F938F937F926F920E94AD0B22
:103F00000F900F900F900F90D8011D968C911F92DB
:103F10008F93C80107969F938F938AE991E09F93AF
:103F20008F937F926F920E94AD0B0FB6F894DEBF15
:103F30000FBECDBF80914E01811105C080914D0112
:103F4000811137C058C080914C01882329F06BEA59
:103F500071E0C3010E94BF0B7801FEE0EF0EF11C7F
:103F6000C12CD12C480126E4820E911C8AE9A82E8E
:103F700081E0B82ED4018C9190E0C816D906F4F6F1
:103F8000D70116968C911F928F93FF92EF92BF925A
:103F9000AF927F926F920E94AD0BBFEFCB1ADB0AFC
:103FA000E7E0EE0EF11C0FB6F894DEBF0FBECDBFFA
:103FB000E1CF80914C01882329F062EB71E0C301CD
:103FC0000E94BF0BF801E55BFF4F81818F938081D9
:103FD0008F93329681818F9380818F9329EB31E08B
:103FE0003F932F937F926F920E94AD0B0FB6F89480
:103FF000DEBF0FBECDBF6EEB71E0C3010E94BF0BF1
:1040000080911606882309F4EBC0F801E35BFF4FAB
:104010000190F081E02DEC30F10508F4E1C0D80109
:10402000A55BBF4F2D913C915F01A20EB31E80E0B6
:1040300090E0C12CD12CAE014F5F5F4FD5016E9146
:104040005D016B3769F4DA01B501FB01F190BF0145
:10405000FD927D01E41AF50A8E159F05B0F76C01FB
:1040600001968730910551F7C114D10409F4B8C005
:1040700081E090E0A1E0F901E80FF91F608170E0B4
:10408000FC01EC5BFE4F4081552747FD50956417BE
:10409000750719F087E090E0A0E001968730910560
:1040A00054F340E050E0F901E80FF91F60816D32F0
:1040B00009F4AC0101968A309105ACF34115510524
:1040C000A1F0F901E40FF51F828160911B06709148
:1040D0001C06803221F4818190E0C09702C090E0FC
:1040E00086978617970709F07BC0AA2309F478C042
:1040F0005601FEE0AF0EB11CC5010E947E357C0169
:1041000020E030E080E22F5F3F4FF701E20FF31F26
:10411000808329303105B9F7B80121E030E0E0E0D3
:10412000F0E0DB014D91BD01442331F0C701820F66
:10413000931FDC014C9331962F5F3F4F27303105A1
:1041400081F7D80116968C91882369F0EE0DFF1D3A
:104150009DE291838A3018F4805D828304C091E3EC
:1041600092838A5D83838AE3F7018083828781E675
:10417000838783E684878BE68587DE0112963E96E9
:1041800080E090E001962D9121938C159D05D4F34C
:10419000FFEF22E785E5F15020408040E1F700C0C5
:1041A000000040915D0650915E06B501C7010E9476
:1041B000D41EC70126960FB6F894DEBF0FBECDBF42
:1041C000DF91CF911F910F91FF90EF90DF90CF90F3
:1041D000BF90AF909F908F907F906F900C94163609
:1041E00026960FB6F894DEBF0FBECDBFDF91CF91FC
:1041F0001F910F91FF90EF90DF90CF90BF90AF9005
:104200009F908F907F906F9008956F927F929F9272
:10421000AF92BF92CF92DF92EF92FF920F931F93D4
:10422000CF93DF931F92CDB7DEB75C018B016A019C
:104230007B0184E1E80EF11C20912C012A3098F4D6
:1042400080912B018A3078F480912A018A3058F4C9
:1042500080912901893038F47B01EBE1EE0EF11CED
:104260009924939401C0912CC70129830E947E3523
:104270003C018DE3F301808380912E018187809141
:104280002D01838B88E0E2EAF6E0D30111960190DC
:104290000D928A95E1F789E0E1EBF6E0D3011A96F9
:1042A00001900D928A95E1F72981911003C0C30115
:1042B000449617C080E5F301848B88E4858B87E4FE
:1042C000868B205D278B80912B01805D808F809174
:1042D0002A01805D818F80912901805D828FC301D9
:1042E0004B960115110521F0A801B5010E94C136B8
:1042F000A601B701C3010E94D41EC3010F90DF9134
:10430000CF911F910F91FF90EF90DF90CF90BF90D2
:10431000AF909F907F906F900C9416368F929F92E3
:10432000AF92BF92CF92DF92EF92FF920F931F93C3
:10433000CF93DF935C016A018B016434710510F047
:1043400003E410E078012FE0E20EF11CC7010E94A7
:104350007E35EC018AE3888387E090E020E030E05E
:104360000197009769F0F901E95AF94F4081442318
:10437000B9F32F5F3F4FFE01E20FF31F4083F0CFF1
:1043800080912701909128018F3F4FEF940779F09A
:10439000FE01E20FF31F4DE241838A3091054CF498
:1043A0002E5F3F4FFE01E20FF31F805D808380E2AE
:1043B00009C091E392832D5F3F4FFE01E20FF31F8F
:1043C0008A5DF4CF293031053CF42F5F3F4FFE0169
:1043D000E20FF31F8083F6CFFE01E20FF31F8AE3A3
:1043E00081830115110581F0A801B501CE010B965D
:1043F0000E94C136A801B5018FE596E00E94C13642
:10440000109348060093470680911706909118066E
:104410000196883E23E092072CF49093180680932F
:10442000170604C01092180610921706FE01E00F3E
:10443000F11F8BE7838700911706109118069AE009
:10444000892E912CC801B4010E94FF349C0144E6DE
:10445000A42EB12CC801B5010E94FF34821B930B1E
:10446000B4010E94FF34AB01C801861B970B821B6D
:10447000930BB5010E94FF34605D6487405D458702
:10448000205D2687A601B701CE010E94D41ECE0171
:10449000DF91CF911F910F91FF90EF90DF90CF9020
:1044A000BF90AF909F908F900C9416362091170676
:1044B00030911806215031093093180620931706C1
:1044C0006091470670914806AC018FE596E00C9428
:1044D0008E2186ED96E09F938F930E9427328091E4
:1044E0001C068F9380911B068F9385E491E09F9328
:1044F0008F9383EC96E09F938F930E942732809155
:104500001A068F93809119068F938FE391E09F9302
:104510008F938DEA96E09F938F930E94273280912C
:1045200038018F93809137018F9389E391E09F93B6
:104530008F938DE996E09F938F930E94273280910D
:1045400030018F9380912F018F9381E391E09F93AE
:104550008F938DE896E09F938F930E9427328DB7BB
:104560009EB74A960FB6F8949EBF0FBE8DBF80913E
:104570001606882319F086E796E002C08EE596E0DD
:104580009F938F930E9427320F900F9080912C0160
:104590008A3061F01F928F9383E596E09F938F930B
:1045A0000E9427320F900F900F900F9080912B0157
:1045B0008A3061F01F928F9387E496E09F938F93E8
:1045C0000E9427320F900F900F900F9080912A0138
:1045D0008A3061F01F928F938DE396E09F938F93C3
:1045E0000E9427320F900F900F900F908091290119
:1045F0008A3061F01F928F938CE296E09F938F93A5
:104600000E9427320F900F900F900F9080912E01F3
:104610008C3541F483E196E09F938F930E9427327B
:104620000F900F9080912E018F3241F48BEF95E027
:104630009F938F930E9427320F900F9020912D010E
:10464000822F992787FD90959F932F938FEE95E06A
:104650009F938F930E9427320F900F900F900F908F
:1046600008950F931F93CF93DF93EC01FA01A901F3
:104670006115710509F4D4C68881813209F562306B
:10468000710508F489C661507109CE0101960E9436
:10469000D41E80914B01882341F084E69AE09F93D9
:1046A0008F930E9427320F900F9080914B018111C0
:1046B000B7C680911F068111B3C681E69AE082C613
:1046C0008034E9F461507109CE0101960E94052100
:1046D00080914B01882341F08BE49AE09F938F9364
:1046E0000E9427320F900F9080914B01811198C644
:1046F00080911F06811194C688E49AE063C68332D4
:10470000E9F461507109CE0101960E948E218091D9
:104710004B01882341F08AE39AE09F938F930E9494
:1047200027320F900F9080914B01811179C68091B3
:104730001F06811175C687E39AE044C6883431F4B8
:10474000DF91CF911F910F910C946922833531F441
:10475000DF91CF911F910F910C94261E833431F479
:10476000DF91CF911F910F910C94BD1C8C3431F4CB
:10477000DF91CF911F910F910C94DF1C833609F0CC
:1047800052C06430710508F407C6E5E4F1E081E049
:1047900090E09C012150310986179707A9F08730D6
:1047A000910581F0DE01A80FB91F2C91222331F071
:1047B0002A3021F02D3011F0208301C010820196A3
:1047C0003196E7CF26E030E02630310539F0F901A7
:1047D000EB5BFE4F10822F5F3F4FF6CF80914B0176
:1047E0008823B1F080911C068F9380911B068F93D4
:1047F00085E491E09F938F9384E29AE09F938F9357
:104800000E9427320F900F900F900F900F900F90F3
:1048100080914B01811104C680911F06811100C651
:1048200081E29AE0CFC5843609F052C06430710548
:1048300008F4B2C5EFE3F1E081E090E09C01215083
:10484000310986179707A9F08730910581F0DE01BD
:10485000A80FB91F2C91222331F02A3021F02D30DE
:1048600011F0208301C0108201963196E7CF26E037
:1048700030E02630310539F0F901E15CFE4F10825D
:104880002F5F3F4FF6CF80914B018823B1F080918D
:104890001A068F93809119068F938FE391E09F936F
:1048A0008F938BE09AE09F938F930E9427320F9013
:1048B0000F900F900F900F900F9080914B018111EE
:1048C000AFC580911F068111ABC588E09AE07AC51B
:1048D000813309F052C06230710508F45DC5E9E327
:1048E000F1E081E090E09C012150310986179707A3
:1048F000A9F08730910581F0DE01A80FB91F2C9136
:10490000222331F02A3021F02D3011F0208301C014
:10491000108201963196E7CF26E030E0263031054F
:1049200039F0F901E75CFE4F10822F5F3F4FF6CF61
:1049300080914B018823B1F0809138018F93809151
:1049400037018F9389E391E09F938F9388EF99E0EC
:104950009F938F930E9427320F900F900F900F908C
:104960000F900F9080914B0181115AC580911F06C5
:10497000811156C585EF99E025C5823309F052C0F3
:104980006230710508F408C5E1E3F1E081E090E0F0
:104990009C012150310986179707A9F087309105AE
:1049A00081F0DE01A80FB91F2C91222331F02A30AB
:1049B00021F02D3011F0208301C010820196319634
:1049C000E7CF26E030E02630310539F0F901EF5C21
:1049D000FE4F10822F5F3F4FF6CF80914B0188230F
:1049E000B1F0809130018F9380912F018F9381E3FB
:1049F00091E09F938F9385EE99E09F938F930E9410
:104A000027320F900F900F900F900F900F90809182
:104A10004B01811105C580911F06811101C582EEF0
:104A200099E0D0C4833709F000C16330710508F400
:104A3000B3C48B010150110989818336E1F502303D
:104A4000110541F08B819FEC980F993018F490E09C
:104A5000869703C08A8190E0C09790931C0680934C
:104A60001B0680914B018823B1F080911C068F9327
:104A700080911B068F9385E491E09F938F938FEC39
:104A800099E09F938F930E9427320F900F900F9081
:104A90000F900F900F9080914B0181110CC080916D
:104AA0001F06811108C08CEC99E09F938F930E94A0
:104AB00027320F900F9089818436E1F5023011057D
:104AC00041F08B819FEC980F993018F490E0869715
:104AD00003C08A8190E0C09790931A0680931906CC
:104AE00080914B018823B1F080911A068F938091B9
:104AF00019068F938FE391E09F938F9386EB99E054
:104B00009F938F930E9427320F900F900F900F90DA
:104B10000F900F9080914B0181110CC080911F0666
:104B2000811108C083EB99E09F938F930E942732F5
:104B30000F900F9089818133E1F58B819FEC980F65
:104B40009930B8F50230110519F090E0869703C04E
:104B50008A8190E0C09790933801809337018091CB
:104B60004B018823B1F0809138018F9380913701F8
:104B70008F9389E391E09F938F9383EA99E09F93CA
:104B80008F930E9427320F900F900F900F900F90ED
:104B90000F9080914B0181110CC080911F068111F3
:104BA00008C080EA99E09F938F930E9427320F906C
:104BB0000F908981823309F033C48B819FEC980F69
:104BC000993008F02DC40230110519F090E0869755
:104BD00003C08A8190E0C0979093300180932F01A9
:104BE00080914B018823B1F0809130018F938091A7
:104BF0002F018F9381E391E09F938F9380E999E058
:104C00009F938F930E9427320F900F900F900F90D9
:104C10000F900F9080914B01811102C480911F066B
:104C20008111FEC38DE899E0CDC3803709F02CC116
:104C30006330710508F4B0C389818337C9F59A815F
:104C400080914B019133C1F491E0909350018823FE
:104C500041F08AE799E09F938F930E9427320F904B
:104C60000F9080914B01811123C080911F0681110B
:104C70001FC087E799E016C010925001882341F0C9
:104C800083E699E09F938F930E9427320F900F90B5
:104C900080914B0181110CC080911F06811108C0C9
:104CA00080E699E09F938F930E9427320F900F9098
:104CB00089818436C9F59A8180914B019133C1F481
:104CC00091E090934F01882341F08DE499E09F9308
:104CD0008F930E9427320F900F9080914B0181118A
:104CE00023C080911F0681111FC08AE499E016C07D
:104CF00010924F01882341F086E399E09F938F93B0
:104D00000E9427320F900F9080914B0181110CC0AF
:104D100080911F06811108C083E399E09F938F93D0
:104D20000E9427320F900F9089818037C9F59A81B0
:104D300080914B019133C1F491E090934E0188230F
:104D400041F08FE199E09F938F930E9427320F905B
:104D50000F9080914B01811123C080911F0681111A
:104D60001FC08CE199E016C010924E01882341F0DB
:104D700087E099E09F938F930E9427320F900F90C6
:104D800080914B0181110CC080911F06811108C0D8
:104D900084E099E09F938F930E9427320F900F90A9
:104DA00089818D36C9F59A8180914B019133C1F487
:104DB00091E090934D01882341F080EF98E09F931C
:104DC0008F930E9427320F900F9080914B01811199
:104DD00023C080911F0681111FC08DEE98E016C080
:104DE00010924D01882341F088ED98E09F938F93B6
:104DF0000E9427320F900F9080914B0181110CC0BF
:104E000080911F06811108C085ED98E09F938F93D4
:104E10000E9427320F900F908981893609F000C3D4
:104E20009A8180914B019133C1F491E090934C01B0
:104E3000882341F081EC98E09F938F930E94273262
:104E40000F900F9080914B018111EAC280911F0653
:104E50008111E6C28EEB98E0B5C210924C01882316
:104E600041F089EA98E09F938F930E9427320F9038
:104E70000F9080914B018111D3C280911F06811147
:104E8000CFC286EA98E09EC28637C1F48981813319
:104E900031F481E080934B0181EC91E004C01092E9
:104EA0004B0187ED91E09F938F93FF93EF930E94C7
:104EB000AD0B0F900F900F900F90B2C2863581F41A
:104EC0008981813341F481E080931F0610924B0168
:104ED0008EEE91E0E8CF10921F0683E092E0E3CFE0
:104EE0008C3609F03FC16330710508F455C28981E1
:104EF0008C3609F05CC0615071098A81813651F5A8
:104F00006A30710508F48CC288E0FE013396A2EA8B
:104F1000B6E001900D928A95E1F780914B018823CC
:104F200071F082EA96E09F938F9380E998E09F93D7
:104F30008F930E9427320F900F900F900F908091C7
:104F40004B0181116DC280911F06811169C28DE8EC
:104F500098E038C28F3609F063C26B30710508F4EF
:104F60005FC289E0FE013396A1EBB6E001900D929D
:104F70008A95E1F780914B01882371F081EB96E0EF
:104F80009F938F9385E798E09F938F930E9427329A
:104F90000F900F900F900F9080914B01811140C2A4
:104FA00080911F0681113CC282E798E00BC28037D6
:104FB00029F58A8180538A3008F032C280932C010F
:104FC00090914B01992379F08802C00111249F939D
:104FD0008F9380E698E09F938F930E9427320F90E3
:104FE0000F900F900F9080914B01811119C2809109
:104FF0001F06811115C28DE598E0E4C18836B9F528
:105000008A8180538A3008F00BC280932B019091E3
:105010004B01992309F1A1E0B0E002C0AA0FBB1F28
:105020008A95E2F728EE33E00E94543528E431E017
:1050300040E050E00E9435355F934F933F932F93AC
:105040008DE398E09F938F930E9427320F900F90EB
:105050000F900F900F900F9080914B018111E0C144
:1050600080911F068111DCC18AE398E0ABC18736CD
:1050700031F52A8120532A3008F0D2C120932A0129
:1050800080914B01882381F0822F992787FD90958D
:105090009F932F9388E298E09F938F930E942732EB
:1050A0000F900F900F900F9080914B018111B8C11C
:1050B00080911F068111B4C185E298E083C18436D6
:1050C000C9F58A8180538A3008F0AAC1893009F471
:1050D00088E08093290180914B0181110CC080915F
:1050E0001F06811108C082E298E09F938F930E946F
:1050F00027320F900F9080914B01882309F490C1C3
:1051000080912901811108C089E098E09F938F93D5
:105110000E9427320F900F9080912901882309F473
:105120007FC12DE2829FC00111249F938F938FEE48
:1051300097E013C0833709F04CC12A8120932D01D9
:1051400080914B01882309F46BC1822F992787FD39
:1051500090959F932F938DED97E09F938F930E944F
:105160002732A7CE8D3609F017C16230710508F4D9
:1051700013C1CB0101972981233609F060C0019743
:1051800009F44EC1E7E5F6E022966250710980E02D
:1051900090E08617970781F08630910569F0299194
:1051A000222331F02A3021F02D3011F0208301C06C
:1051B000108201963196EDCF8630910531F0FC01D9
:1051C000E95AF94F10820196F7CF80914B0188235D
:1051D00059F187E596E09F938F9381E897E09F933D
:1051E0008F930E94273280912701909128010F9080
:1051F0000F900F900F908F3F2FEF920769F09F93C2
:105200008F938CE797E09F938F930E9427320F90A4
:105210000F900F900F9008C08AE797E09F938F93AD
:105220000E9427320F900F9080914B018111F8C09E
:1052300080911F068111F4C087E797E0C3C0233730
:1052400009F057C08130910509F4EAC0029721F0B6
:105250008B8190E0869703C08A8190E0C0979093FD
:105260002801809327018091270190912801409780
:1052700030F08FEF9FEF909328018093270180916A
:105280004B01882359F187E596E09F938F938FE533
:1052900097E09F938F930E942732809127019091EE
:1052A00028010F900F900F900F908F3F2FEF9207D4
:1052B00069F09F938F938AE597E09F938F930E9465
:1052C00027320F900F900F900F9008C088E597E05D
:1052D0009F938F930E9427320F900F9080914B01E4
:1052E00081119EC080911F0681119AC085E597E0CB
:1052F00069C02237D1F4CA010E94562280914B0125
:10530000882341F08FE397E09F938F930E94273289
:105310000F900F9080914B01811182C080911F06E8
:1053200081117EC08CE397E04DC0213609F078C032
:105330009A8180914B019133C1F491E090931606CC
:10534000882341F082E297E09F938F930E94273257
:105350000F900F9080914B01811162C080911F06C8
:1053600081115EC08FE197E02DC010921606882350
:1053700041F084E097E09F938F930E9427320F9033
:105380000F9080914B0181114BC080911F068111BC
:1053900047C081E097E016C080914B01882341F01F
:1053A00089EE96E09F938F930E9427320F900F9083
:1053B00080914B01811134C080911F06811130C052
:1053C00086EE96E09F938F930E9427320F900F9066
:1053D00027C0843729F59A8180914B01913641F499
:1053E0009CE590932E01882381F08CEB97E007C019
:1053F0009FE290932E01882341F08CE997E09F93E0
:105400008F930E9427320F900F9080914B01811152
:1054100007C080911F06811103C089E997E0D2CFB0
:10542000DF91CF911F910F9108952F923F924F924C
:105430005F926F927F928F929F92AF92BF92CF9224
:10544000DF92EF92FF920F931F93CF93DF93CDB72D
:10545000DEB7C45AD1090FB6F894DEBF0FBECDBF78
:10546000C856DF4F99838883C859D040C656DF4F4E
:1054700079836883CA59D040C456DF4F5983488323
:10548000CC59D0405901C257DF4F19821882CE58EB
:10549000D0409E012F5F3F4FC957DF4F398328838C
:1054A000C758D040AE014A575F4FC757DF4F5983A7
:1054B0004883C958D040C856DF4F08811981C85960
:1054C000D0400F5F1F4FC856DF4FE881F981C859A0
:1054D000D0408491853291F1882309F448C7C4569D
:1054E000DF4F68817981CC59D040C656DF4FE881C3
:1054F000F981CA59D0400995C257DF4FE880F98039
:10550000CE58D040FFEFEF1AFF0AC557DF4FB982E0
:10551000A882CB58D040C856DF4F19830883C8599A
:10552000D040C257DF4FF982E882CE58D040C557ED
:10553000DF4FA880B980CB58D040BDCFF80184910F
:10554000853259F5C856DF4F28813981C859D04076
:105550002E5F3F4FC856DF4F39832883C859D0404C
:10556000C456DF4F68817981CC59D040C656DF4F91
:10557000E881F981CA59D0400995C257DF4FE880C8
:10558000F980CE58D040FFEFEF1AFF0AC557DF4F22
:10559000B982A882CB58D040C4CFC256DF4F188200
:1055A000CE59D040C357DF4F1882CD58D040C05796
:1055B000DF4F1882C059D040CF56DF4F1882C159F3
:1055C000D040F8012491C80101962B3209F458C04B
:1055D00060F42032E9F0233209F05AC0F1E0C357F9
:1055E000DF4FF883CD58D04051C02D3251F02033D9
:1055F00009F04EC021E0C256DF4F2883CE59D0407B
:1056000045C0F1E0C057DF4FF883C059D0403EC0DD
:10561000232D2C7F322ECF56DF4F3881C159D040F9
:10562000332ACE56DF4F4881C259D04040FB32F872
:10563000C057DF4F5881C059D04050FB33F820FA93
:1056400034F8CD56DF4FA881C359D040A0FB35F8C0
:10565000C357DF4FB881CD58D040B0FB36F8CC5699
:10566000DF4FE881C459D040E0FB37F8232D237089
:1056700069F441E0CF56DF4F4883C159D04006C09E
:1056800031E0CF56DF4F3883C159D0408C0199CFDC
:10569000C357DF4F5881CD58D040C056DF4F588395
:1056A000C05AD040F80124912A3221F0612C712C8B
:1056B0003AE025C095012E5F3F4FD5016D907C905B
:1056C00077FE09C0719461947108B1E0C057DF4F53
:1056D000B883C059D0408C01590116C02A33A0F4B8
:1056E0000F5F1F4FFC018491A301349F3001359F50
:1056F000700C112450E3651A7108680E711CC80102
:10570000F8012491203350F7C057DF4FF881C0597A
:10571000D040FF2329F0C256DF4F1882CE59D04027
:10572000F80184918E3249F5319684918A3229F0BC
:105730008F01412C512C3AE01AC0D5014D905C905C
:105740000E5F1F4FF50132965F011AC02A33C0F475
:105750000F5F1F4FFC018491A201349F2001359FF0
:10576000500C112450E3451A5108480E511CC80131
:10577000F8012491203350F703C044244A94542C58
:10578000F8012491C8010196283699F018F42C34B8
:1057900039F017C02C3621F02A3799F4212C02C099
:1057A000222423948C01CD56DF4F1882C359D04058
:1057B0000EC08C01F1E0CD56DF4FF883C359D040C5
:1057C00005C0CD56DF4F1882C359D040212C980117
:1057D0002F5F3F4FC856DF4F39832883C859D040C9
:1057E000F801D490C956DF4FD882C759D040F5E6AA
:1057F000DF1609F402C2FD15ECF023E5D21609F418
:1058000053C02D1564F035E4D31609F4F6C147E40E
:10581000D41609F4E1C1DD2009F46FC42AC053E6AF
:10582000D51671F15D150CF4C6C088E5D81609F4DB
:105830008DC01FC090E7D91609F471C09D1564F0A2
:10584000A7E6DA1609F4C8C1DA160CF4D1C1B9E634
:10585000DB1609F4B0C00DC0E5E7DE1609F476C02A
:10586000F8E7DF1609F46DC023E7D21202C0F12C6D
:105870001DC0C557DF4FB982A882CB58D04049C45C
:10588000A5014E5F5F4FC557DF4F59834883CB5803
:10589000D040D5018C918983F12C8E010E5F1F4F72
:1058A000FE0131964F0143C4FF24F39495012E5F0E
:1058B0003F4FC557DF4F39832883CB58D040D501A0
:1058C0008D909C908114910421F4A5E58A2EA1E08D
:1058D0009A2E57FE04C0F0E14F2EF7E25F2E8401AE
:1058E000FF20C1F0F8018491882309F420C4C80185
:1058F00088199909841595050CF019C40F5F1F4F7D
:10590000F1CFC80188199909841595050CF00FC4C9
:105910000F5F1F4FD8018C918111F3CF08C4F5019F
:105920003296C557DF4FF983E883CB58D040D50175
:105930006D917C9180E090E0E4E7EE2EE1E0FE2EB8
:1059400026C074E8E72E71E0F72E04C064E7E62E67
:1059500061E0F62E222071F0F5013496C557DF4F35
:10596000F983E883CB58D040D5016D917D918D911D
:105970009C910DC0C5010296F50160817181C557EA
:10598000DF4F99838883CB58D04080E090E021E0BE
:10599000CE56DF4F2883C259D04035E7D31205C019
:1059A000CE56DF4F1882C259D040CF56DF4F1882F3
:1059B000C159D0403EC0222079F0A5014C5F5F4F15
:1059C000C557DF4F59834883CB58D040D5016D91DF
:1059D0007D918D919C910FC0F5013296C557DF4F97
:1059E000F983E883CB58D040D5016D917C9188270D
:1059F00077FD8095982F97FF13C0909580957095AF
:105A000061957F4F8F4F9F4FCE56DF4F1882C259FF
:105A1000D040B2E0CF56DF4FB883C159D04005C067
:105A2000CE56DF4F1882C259D04054E7E52E51E0E0
:105A3000F52EE1E0CC56DF4FE883C459D040611524
:105A400071058105910529F4CC56DF4F1882C459A0
:105A5000D0404114510441F4CC56DF4FF881C45971
:105A6000D040FF2309F476C0CE56DF4F2881C259BB
:105A7000D0408E010A571F4F2130A9F02AE030E0B4
:105A800040E050E00E941335F701E60FF71F8081D8
:105A9000D8018E938D01B901CA0161157105810587
:105AA000910561F715C0FB01EF70FF27EE0DFF1D9B
:105AB0002081F80122938F0144E096958795779590
:105AC00067954A95D1F7611571058105910559F7DB
:105AD00057FE43C0C256DF4FF881CE59D040FF2356
